{
    "_format": "hh-sol-artifact-1",
    "contractName": "Staking",
    "sourceName": "contracts/Staking.sol",
    "abi": [
        {
            "inputs": [],
            "stateMutability": "payable",
            "type": "constructor"
        },
        {
            "inputs": [
                {
                    "internalType": "uint256",
                    "name": "amount",
                    "type": "uint256"
                },
                {
                    "internalType": "address",
                    "name": "sendTo",
                    "type": "address"
                },
                {
                    "internalType": "uint256",
                    "name": "numDays",
                    "type": "uint256"
                }
            ],
            "name": "BorrowFunds",
            "outputs": [],
            "stateMutability": "payable",
            "type": "function"
        },
        {
            "inputs": [],
            "name": "borrowPositionId",
            "outputs": [
                {
                    "internalType": "uint256",
                    "name": "",
                    "type": "uint256"
                }
            ],
            "stateMutability": "view",
            "type": "function"
        },
        {
            "inputs": [
                {
                    "internalType": "address",
                    "name": "",
                    "type": "address"
                }
            ],
            "name": "borrowerIdByAddress",
            "outputs": [
                {
                    "internalType": "uint256",
                    "name": "",
                    "type": "uint256"
                }
            ],
            "stateMutability": "view",
            "type": "function"
        },
        {
            "inputs": [
                {
                    "internalType": "uint256",
                    "name": "",
                    "type": "uint256"
                }
            ],
            "name": "borrowers",
            "outputs": [
                {
                    "internalType": "uint256",
                    "name": "positionId",
                    "type": "uint256"
                },
                {
                    "internalType": "address",
                    "name": "walletAddress",
                    "type": "address"
                },
                {
                    "internalType": "uint256",
                    "name": "createdDate",
                    "type": "uint256"
                },
                {
                    "internalType": "uint256",
                    "name": "endDate",
                    "type": "uint256"
                },
                {
                    "internalType": "uint256",
                    "name": "percentInterest",
                    "type": "uint256"
                },
                {
                    "internalType": "uint256",
                    "name": "weiBorrowed",
                    "type": "uint256"
                },
                {
                    "internalType": "uint256",
                    "name": "weiInterest",
                    "type": "uint256"
                },
                {
                    "internalType": "bool",
                    "name": "paid",
                    "type": "bool"
                }
            ],
            "stateMutability": "view",
            "type": "function"
        },
        {
            "inputs": [
                {
                    "internalType": "uint256",
                    "name": "positionId",
                    "type": "uint256"
                },
                {
                    "internalType": "uint256",
                    "name": "newUnlockDate",
                    "type": "uint256"
                }
            ],
            "name": "changeUnlockDate",
            "outputs": [],
            "stateMutability": "nonpayable",
            "type": "function"
        },
        {
            "inputs": [
                {
                    "internalType": "uint256",
                    "name": "positionId",
                    "type": "uint256"
                }
            ],
            "name": "closePosition",
            "outputs": [],
            "stateMutability": "nonpayable",
            "type": "function"
        },
        {
            "inputs": [],
            "name": "currentPositionId",
            "outputs": [
                {
                    "internalType": "uint256",
                    "name": "",
                    "type": "uint256"
                }
            ],
            "stateMutability": "view",
            "type": "function"
        },
        {
            "inputs": [
                {
                    "internalType": "uint256",
                    "name": "numDays",
                    "type": "uint256"
                }
            ],
            "name": "getInterestRate",
            "outputs": [
                {
                    "internalType": "uint256",
                    "name": "",
                    "type": "uint256"
                }
            ],
            "stateMutability": "view",
            "type": "function"
        },
        {
            "inputs": [],
            "name": "getLockPeriods",
            "outputs": [
                {
                    "internalType": "uint256[]",
                    "name": "",
                    "type": "uint256[]"
                }
            ],
            "stateMutability": "view",
            "type": "function"
        },
        {
            "inputs": [
                {
                    "internalType": "uint256",
                    "name": "positionId",
                    "type": "uint256"
                }
            ],
            "name": "getPositionById",
            "outputs": [
                {
                    "components": [
                        {
                            "internalType": "uint256",
                            "name": "positionId",
                            "type": "uint256"
                        },
                        {
                            "internalType": "address",
                            "name": "walletAddress",
                            "type": "address"
                        },
                        {
                            "internalType": "uint256",
                            "name": "createdDate",
                            "type": "uint256"
                        },
                        {
                            "internalType": "uint256",
                            "name": "unlockDate",
                            "type": "uint256"
                        },
                        {
                            "internalType": "uint256",
                            "name": "percentInterest",
                            "type": "uint256"
                        },
                        {
                            "internalType": "uint256",
                            "name": "weiStaked",
                            "type": "uint256"
                        },
                        {
                            "internalType": "uint256",
                            "name": "weiInterest",
                            "type": "uint256"
                        },
                        {
                            "internalType": "bool",
                            "name": "open",
                            "type": "bool"
                        }
                    ],
                    "internalType": "struct Staking.Position",
                    "name": "",
                    "type": "tuple"
                }
            ],
            "stateMutability": "view",
            "type": "function"
        },
        {
            "inputs": [
                {
                    "internalType": "address",
                    "name": "walletAddress",
                    "type": "address"
                }
            ],
            "name": "getPositionIdForAddress",
            "outputs": [
                {
                    "internalType": "uint256[]",
                    "name": "",
                    "type": "uint256[]"
                }
            ],
            "stateMutability": "view",
            "type": "function"
        },
        {
            "inputs": [
                {
                    "internalType": "uint256",
                    "name": "",
                    "type": "uint256"
                }
            ],
            "name": "lockPeriods",
            "outputs": [
                {
                    "internalType": "uint256",
                    "name": "",
                    "type": "uint256"
                }
            ],
            "stateMutability": "view",
            "type": "function"
        },
        {
            "inputs": [
                {
                    "internalType": "uint256",
                    "name": "numDays",
                    "type": "uint256"
                },
                {
                    "internalType": "uint256",
                    "name": "basisPoints",
                    "type": "uint256"
                }
            ],
            "name": "modifyLockPeriods",
            "outputs": [],
            "stateMutability": "nonpayable",
            "type": "function"
        },
        {
            "inputs": [],
            "name": "owner",
            "outputs": [
                {
                    "internalType": "address",
                    "name": "",
                    "type": "address"
                }
            ],
            "stateMutability": "view",
            "type": "function"
        },
        {
            "inputs": [
                {
                    "internalType": "address",
                    "name": "borrower",
                    "type": "address"
                }
            ],
            "name": "payBorrowedFund",
            "outputs": [],
            "stateMutability": "payable",
            "type": "function"
        },
        {
            "inputs": [
                {
                    "internalType": "address",
                    "name": "",
                    "type": "address"
                },
                {
                    "internalType": "uint256",
                    "name": "",
                    "type": "uint256"
                }
            ],
            "name": "positionIdsByAddress",
            "outputs": [
                {
                    "internalType": "uint256",
                    "name": "",
                    "type": "uint256"
                }
            ],
            "stateMutability": "view",
            "type": "function"
        },
        {
            "inputs": [
                {
                    "internalType": "uint256",
                    "name": "",
                    "type": "uint256"
                }
            ],
            "name": "positions",
            "outputs": [
                {
                    "internalType": "uint256",
                    "name": "positionId",
                    "type": "uint256"
                },
                {
                    "internalType": "address",
                    "name": "walletAddress",
                    "type": "address"
                },
                {
                    "internalType": "uint256",
                    "name": "createdDate",
                    "type": "uint256"
                },
                {
                    "internalType": "uint256",
                    "name": "unlockDate",
                    "type": "uint256"
                },
                {
                    "internalType": "uint256",
                    "name": "percentInterest",
                    "type": "uint256"
                },
                {
                    "internalType": "uint256",
                    "name": "weiStaked",
                    "type": "uint256"
                },
                {
                    "internalType": "uint256",
                    "name": "weiInterest",
                    "type": "uint256"
                },
                {
                    "internalType": "bool",
                    "name": "open",
                    "type": "bool"
                }
            ],
            "stateMutability": "view",
            "type": "function"
        },
        {
            "inputs": [
                {
                    "internalType": "uint256",
                    "name": "numDays",
                    "type": "uint256"
                }
            ],
            "name": "stakeEther",
            "outputs": [],
            "stateMutability": "payable",
            "type": "function"
        },
        {
            "inputs": [
                {
                    "internalType": "uint256",
                    "name": "",
                    "type": "uint256"
                }
            ],
            "name": "tiers",
            "outputs": [
                {
                    "internalType": "uint256",
                    "name": "",
                    "type": "uint256"
                }
            ],
            "stateMutability": "view",
            "type": "function"
        }
    ],
    "bytecode": "0x6080604052600080546001600160a01b03191633178155601181905560146020526102bc7fc959387dd26ee22ae1aac486cee79ec8b8cb27a75b6bf85d8e68a81196136067556103e87f285095a344754880ca6a898f5fa6cc92dd1ec0bfb00e6005d40b78d7732bd1af556104b07f735eb99c5ba78d24dfe00520bea1aef2c8d74e29b8ed04fd2be9cc7be74f2e3855601780546001818101835592829052601e7fc624b66cc0138b8fabc209247f72d758e1cf3343756d543badbf24212bed8c159182015581548084018355605a90820155815492830190915560b4910155611162806100ee6000396000f3fe6080604052600436106101445760003560e01c80638da5cb5b116100c0578063b838ec8611610074578063d5a02ab811610059578063d5a02ab814610363578063e4f9084114610376578063fdf4bab71461038957610144565b8063b838ec8614610316578063c7c9d0551461034357610144565b8063a126d601116100a5578063a126d601146102c1578063a6401484146102e3578063b0f0475b146102f657610144565b80638da5cb5b1461027f57806399fbab88146102a157610144565b806341ee13be116101175780634c8f2a78116100fc5780634c8f2a78146102165780636145484e146102365780637924d93f1461024b57610144565b806341ee13be146101e157806345eae373146101f657610144565b8063039af9eb146101495780630c196a741461017f5780630cedf4471461019f5780631131c8cd146101cc575b600080fd5b34801561015557600080fd5b50610169610164366004610d7c565b6103a9565b6040516101769190611075565b60405180910390f35b34801561018b57600080fd5b5061016961019a366004610d7c565b6103bb565b3480156101ab57600080fd5b506101bf6101ba366004610d39565b6103d0565b6040516101769190610e00565b3480156101d857600080fd5b5061016961043c565b3480156101ed57600080fd5b506101bf610442565b34801561020257600080fd5b50610169610211366004610d53565b61049a565b34801561022257600080fd5b50610169610231366004610d7c565b6104cb565b34801561024257600080fd5b506101696104ec565b34801561025757600080fd5b5061026b610266366004610d7c565b6104f2565b60405161017698979695949392919061107e565b34801561028b57600080fd5b50610294610542565b6040516101769190610dec565b3480156102ad57600080fd5b5061026b6102bc366004610d7c565b610551565b3480156102cd57600080fd5b506102e16102dc366004610d7c565b6105a1565b005b6102e16102f1366004610d94565b610730565b34801561030257600080fd5b506102e1610311366004610dc8565b6108ee565b34801561032257600080fd5b50610336610331366004610d7c565b61095b565b6040516101769190611011565b34801561034f57600080fd5b506102e161035e366004610dc8565b6109df565b6102e1610371366004610d39565b610a1e565b6102e1610384366004610d7c565b610b26565b34801561039557600080fd5b506101696103a4366004610d39565b610ca0565b60146020526000908152604090205481565b6000818152601460205260409020545b919050565b6001600160a01b03811660009081526013602090815260409182902080548351818402810184019094528084526060939283018282801561043057602002820191906000526020600020905b81548152602001906001019080831161041c575b50505050509050919050565b60115481565b6060601780548060200260200160405190810160405280929190818152602001828054801561049057602002820191906000526020600020905b81548152602001906001019080831161047c575b5050505050905090565b601360205281600052604060002081815481106104b657600080fd5b90600052602060002001600091509150505481565b601781815481106104db57600080fd5b600091825260209091200154905081565b60185481565b6015602052600090815260409020805460018201546002830154600384015460048501546005860154600687015460079097015495966001600160a01b0390951695939492939192909160ff1688565b6000546001600160a01b031681565b6012602052600090815260409020805460018201546002830154600384015460048501546005860154600687015460079097015495966001600160a01b0390951695939492939192909160ff1688565b6000818152601260205260409020600101546001600160a01b031633146105e35760405162461bcd60e51b81526004016105da90610fb4565b60405180910390fd5b60008181526012602052604090206007015460ff1615156001146106195760405162461bcd60e51b81526004016105da90610f7d565b600081815260126020526040902060078101805460ff19169055600301544211156106c5576000818152601260205260408120600681015460059091015461066191906110bf565b9050336001600160a01b03168160405161067a90610de9565b60006040518083038185875af1925050503d80600081146106b7576040519150601f19603f3d011682016040523d82523d6000602084013e6106bc565b606091505b5050505061072d565b600081815260126020526040908190206005015490513391906106e790610de9565b60006040518083038185875af1925050503d8060008114610724576040519150601f19603f3d011682016040523d82523d6000602084013e610729565b606091505b5050505b50565b6000546001600160a01b0316331461075a5760405162461bcd60e51b81526004016105da90610e7b565b6040518061010001604052806018548152602001836001600160a01b03168152602001428152602001826201518061079291906110f7565b61079c90426110bf565b8152610fa060208201526040810185905260600160646107bd8660086110f7565b6107c791906110d7565b815260006020918201819052601854815260158252604090819020835181559183015160018301805473ffffffffffffffffffffffffffffffffffffffff19166001600160a01b03928316179055838201516002840155606084015160038401556080840151600484015560a0840151600584015560c0840151600684015560e0909301516007909201805460ff1916921515929092179091555190831690849061087190610de9565b60006040518083038185875af1925050503d80600081146108ae576040519150601f19603f3d011682016040523d82523d6000602084013e6108b3565b606091505b5050601880546001600160a01b038516600090815260166020526040812082905560019350906108e49084906110bf565b9091555050505050565b6000546001600160a01b031633146109185760405162461bcd60e51b81526004016105da90610f20565b6000828152601460205260408120919091556017805460018101825591527fc624b66cc0138b8fabc209247f72d758e1cf3343756d543badbf24212bed8c150155565b610963610cd2565b506000908152601260209081526040918290208251610100810184528154815260018201546001600160a01b0316928101929092526002810154928201929092526003820154606082015260048201546080820152600582015460a0820152600682015460c082015260079091015460ff16151560e082015290565b6000546001600160a01b03163314610a095760405162461bcd60e51b81526004016105da90610f20565b60009182526012602052604090912060030155565b6001600160a01b038116600090815260166020908152604080832054808452601590925282206005810154600690910154919291610a5c91906110bf565b905080341015610a7e5760405162461bcd60e51b81526004016105da90610eb2565b60008281526015602052604090206007015460ff1615610ab05760405162461bcd60e51b81526004016105da90610e44565b60008281526015602052604090819020600701805460ff191660011790555130908290610adc90610de9565b60006040518083038185875af1925050503d8060008114610b19576040519150601f19603f3d011682016040523d82523d6000602084013e610b1e565b606091505b505050505050565b600081815260146020526040902054610b515760405162461bcd60e51b81526004016105da90610ee9565b6040518061010001604052806011548152602001336001600160a01b031681526020014281526020018262015180610b8991906110f7565b610b9390426110bf565b81526000838152601460208181526040808420548286018190523491860182905293879052919052606090920191610bcb9190610cb2565b8152600160209182018190526011805460009081526012845260408082208651815586860151818601805473ffffffffffffffffffffffffffffffffffffffff19166001600160a01b03909216919091179055868201516002820155606087015160038201556080870151600482015560a0870151600582015560c0870151600682015560e0909601516007909601805460ff1916961515969096179095553381526013845293842081548154808501835591865293852001929092558154909290610c989084906110bf565b909155505050565b60166020526000908152604090205481565b6000612710610cc183856110f7565b610ccb91906110d7565b9392505050565b6040518061010001604052806000815260200160006001600160a01b0316815260200160008152602001600081526020016000815260200160008152602001600081526020016000151581525090565b80356001600160a01b03811681146103cb57600080fd5b600060208284031215610d4a578081fd5b610ccb82610d22565b60008060408385031215610d65578081fd5b610d6e83610d22565b946020939093013593505050565b600060208284031215610d8d578081fd5b5035919050565b600080600060608486031215610da8578081fd5b83359250610db860208501610d22565b9150604084013590509250925092565b60008060408385031215610dda578182fd5b50508035926020909101359150565b90565b6001600160a01b0391909116815260200190565b6020808252825182820181905260009190848201906040850190845b81811015610e3857835183529284019291840191600101610e1c565b50909695505050505050565b60208082526013908201527f646562747320686173206265656e207061696400000000000000000000000000604082015260600190565b60208082526019908201527f4f6e6c79206f776e65722063616e2073656e642066756e647300000000000000604082015260600190565b60208082526016908201527f616d6f756e74206973206e6f7420636f6d706c65746500000000000000000000604082015260600190565b60208082526011908201527f4d617070696e67206e6f7420666f756e64000000000000000000000000000000604082015260600190565b60208082526024908201527f4f6e6c79206f776e6572206d6179206d6f64696679207374616b696e6720706560408201527f72696f6400000000000000000000000000000000000000000000000000000000606082015260800190565b60208082526012908201527f506f736974696f6e20697320636c6f7365640000000000000000000000000000604082015260600190565b60208082526028908201527f6f6e6c7920706f736974696f6e2063726561746f72206d6179206d6f6469667960408201527f20706f7369746f6e000000000000000000000000000000000000000000000000606082015260800190565b600061010082019050825182526001600160a01b03602084015116602083015260408301516040830152606083015160608301526080830151608083015260a083015160a083015260c083015160c083015260e0830151151560e083015292915050565b90815260200190565b9788526001600160a01b0396909616602088015260408701949094526060860192909252608085015260a084015260c0830152151560e08201526101000190565b600082198211156110d2576110d2611116565b500190565b6000826110f257634e487b7160e01b81526012600452602481fd5b500490565b600081600019048311821515161561111157611111611116565b500290565b634e487b7160e01b600052601160045260246000fdfea2646970667358221220aec1b44e16e730181b570d765deef01646a9d164fef8bbaa284b0af4db3c2ce964736f6c63430008000033",
    "linkReferences": {},
    "deployedLinkReferences": {}
}